:020000040000fa
:080000000002040000000000f2
:020000040000fa
:100400004fcf21000e7f22000e0188000000000067
:100410000c00070020422800010020001100070006
:10042000000020000000e000020032000000020096
:100430000000000030570200000000000040da0019
:100440000000fe004440a900c0d220000000e000ef
:100450000300320000002000a00188004440a800f2
:100460000000060091018800800078000000eb0089
:1004700015003700e280400032a0b4009101ba00bc
:10048000e280400032a0b4009102ba00e280400055
:1004900032a0b4000002eb00472bde00f507b200eb
:1004a000602ce10004003a000059eb008301e900f0
:1004b000fdff3e00040037006128e100010032002a
:1004c0000082eb00040007001101ba000200e00006
:1004d000e8ff3a00000006003159ba008301e90044
:1004e0000c0032002159ba008301e90008003200f3
:1004f0000400e00003003a00e280400032a0b400b3
:10050000f5ff370011d9ba008301e900faff3a007c
:100510008100e800e180400032a0b4000000060045
:1005200000000000000000000000000000000000cb
:1005300000000000000000000000000000000000bb
:1005400017e2a9009a20a9009a40a9008a20a900d0
:100550008a40a900000006008a20a9008a40a9005c
:10056000e7416000c419dd00c10b20009140780014
:10057000f2c8b30082c0600083c070008000fd003c
:10058000bce0b7008000fd00800178000307b200e6
:10059000c419de00d10b20009140780082cfb30057
:1005a00082c0600083c070008000fd00bde0b70025
:1005b0008000fd00680160004311de00024141003f
:1005c000a1092000914078000114a10082c07000b0
:1005d0008000fd009ae0b7008000fd000008b20036
:1005e0004700de004200dd00a109200091407800b4
:1005f0000124a10080c07000010078009ae0b700db
:100600000000060016c2bf000008a300fdff3a006c
:1006100016c2bf000018a300faff3a0016c2bf00be
:100620000028a300f7ff3a0016c2bf000038a3005d
:10063000f4ff3a0016c2bf000048a300f1ff3a00e1
:1006400019c2bf000068a300eeff3a0000000600d8
:100650001662a80016c2bf000038a300fdff3a00d2
:1006600018c2a900801080000080fb000000060076
:100670000080fb009010880018c2bf0001c8b300c2
:10068000014060000080fb000000e9004f00de0038
:100690000000e90000000600a1108800b0108800ea
:1006a000000006001622a800000006001602a8009e
:1006b000000006001642a800000006006022b800f4
:1006c000060220000000d0008180d2000482d20007
:1006d0008582d2000000a0000202520083825a00ec
:1006e000030031000202420083824a000000a100a0
:1006f0000603e900f3ff3a0000000600020ab90011
:10070000001bb9000200b8008100420081004300d4
:1007100000000600800078001104b10003003500dd
:100720009101b10001003c000050a0000000060053
:10073000800078001106b100030035009101b1007e
:1007400001003c000050a1000000060000017800fc
:1007500000c2b300010037000201e80092407800b7
:1007600080cf5000fcff3200e9cf5000faff32008a
:10077000d0c2b30080cf500003003a000201e8006d
:1007800014c0b300050037000042eb00b0c2b30054
:1007900080cf500001003a000201e8008000eb0029
:1007a00005fd2f00040037006a08b90000804100f1
:1007b000850040000201e8009201fb000580410035
:1007c000e90f5000f8ff36000404e0000100320099
:1007d0008100ea00010078000000060000027800b5
:1007e0008101780001007800110009000280d80022
:1007f0008400e8000000e0000200320001027800fe
:10080000f9ff37008048eb00110009008281d80011
:100810008000fd0081017800e94f500001003400a4
:100820006740400005c3b300055240000100e000ee
:10083000f5ff3a000400780000000600881f7800e9
:10084000000478000100e00002003500800178001b
:100850000400370080017800d0c2b30080597800ce
:100860008100ea0003007800dcff07000800780040
:100870004f047800000006008001eb000200370002
:10088000817178008301e800828f5100fcff3a00fb
:100890000000060010417800b141510003003a0009
:1008a0000000e8000204e000faff3a000300fb0049
:1008b00000000600800178000001780031407800d7
:1008c000005978000004e000fcff3a0003007800c3
:1008d00000000600800078003004e000feff3a00cf
:1008e000010050000000e9000000060081017800ce
:1008f0000002eb000b003700e44078000104e00048
:10090000030032000402e80093cf500004003200dc
:100910008180fb001380fb00008050000000060077
:100920008301e800820f5200f3ff3a000000050047
:100930000003780080027800020278008001eb005a
:10094000080037000402e90063c07800805a78008c
:100950008301e8000004e00002003a008000eb00a0
:1009600006003700828f5100f6ff3a00fbff370088
:100970000040eb0080f07a008100e800848f500096
:10098000fbff3a0006007800000006000c00fa00a9
:10099000889fbe0000047800cfb09700f0ff2700ca
:1009a000d0bf9f008004eb0099bf9f0088bf9f00cd
:1009b000a8bf9f00200c2000b0bf9f007881570087
:1009c00070805700080007000fb8970009487800aa
:1009d0000fb8970008045000080078004f04be00cc
:1009e0000080fa0000000600fe874700889fbe00d6
:1009f0008a9fbe008c9fbe008e1f7800f0b79f00bc
:100a00000107780082bf9f000000eb00a0b79f00a5
:100a10009f0237008006eb0050c2b30080cf500029
:100a2000090032000100fb00ffb0970068030700d7
:100a3000e10f400096023200afb097008100e8005d
:100a4000a1b79f00920237009e407800d0c2b30049
:100a500080cf50000c00320007003c006d40500079
:100a600080cf50000a0032006b40400080cf500021
:100a70000e003a000800370000c3b30080cf5000da
:100a80000a003a00060037000d30a00005003700cc
:100a90000d00a000030037000d10a000010037007a
:100aa0000d20a0000e07e800e7ff37000d18a30097
:100ab000010032000d00a1000d38a300010032003a
:100ac0000d20a1000100fb0002fd2f0002004000ec
:100ad000e90f50000e003e000002eb00c4b79f007b
:100ae00082017800cfb297006a28b9001e01fb008e
:100af0000001410003014100c2b79f005e00fb00fe
:100b000003004000e90f50000b003e00f5ff3700e6
:100b10000006eb00ccb79f00a0c2b30080cf50000e
:100b200005003a000fb89700c000780080bf9f0012
:100b3000c1b79f000e07e8000001eb00b2b79f00ad
:100b4000e0c2b3009e4f100018003a000de0a00074
:100b50008e00e80064405000914f10000200320007
:100b6000010778000c0037000fba9700c402780024
:100b700084bf9f00b5b79f000e87e8000b003700c9
:100b80003fb697006a60b9000000410003004000d2
:100b9000b0b79f000e07e8001e01fb0003fd2f0009
:100ba00003004100e90f5000f5ff3600be40780019
:100bb000e1d79f00c0c6b30080cf500022003200b2
:100bc0000f003c006940500080cf50007700320099
:100bd00004003c000104e000310232006b40500090
:100be0000f00370040c6b30080cf500093003200a2
:100bf0006540400080cf50008b003a008f003700e6
:100c000030c7b30080cf50001a00320007003c000c
:100c10006440500080cf5000110032000040e800d6
:100c200080cf500080003a000f00370050c7b3005b
:100c300080cf5000800032006340400080cf5000e1
:100c400079003a0009003700000028000d48a30091
:100c500001003a000001200080867600d3ff3700b3
:100c60000d60a000750037000d50a0000d70a000b1
:100c7000720037008fb897004100780081bf9f0055
:100c8000000478000000e00001003a00c84b210099
:100c90008004eb00010037008104e800890078003f
:100ca000088044001004e000fbff3a003fb19700c9
:100cb0000200e00003003200890f51000100310002
:100cc000820478000002eb00e4af9f00cfb29700ef
:100cd000898f52000200360009805200e0af9f0069
:100ce0004368de00e10660001b003a000d06780054
:100cf00009003700ffb0970000022000b40207008f
:100d0000e10f4000030032002fb097000000e80020
:100d1000a0b79f000c06e800efa89700810f5600cf
:100d2000f4ff3a000081eb00e2af9f000a003700b9
:100d3000880078003100fb0001047800ffb09700c4
:100d4000a3020700e10f4000030032002fb297001a
:100d50000402e800a4b79f000900e90080047800bd
:100d6000e10f4000f2ff3a000006eb000d00e0004a
:100d70000a003a00c6013700ffb0970000022000c9
:100d800093020700e10f400003003200afb297006a
:100d90008502e800a5b79f000c06e8006fa8970041
:100da000800f5600f4ff3a00b90137008fb8970062
:100db0004100780081bf9f00cf80de0001017800f4
:100dc000820178000205be000004be000203be00de
:100dd0000002be004822de00482edd00040276003c
:100de000e4d79f000d48a3000a0032000404e0008d
:100df00008003200e14f42000600320071fd2f0072
:100e0000018047000448780018409800290020001d
:100e100002003700f0d79f001900200072fd2f005c
:100e200002844700a1ff370064fd2f0004844700bf
:100e3000190020009dff37000d0cb3000d00780055
:100e4000000cb20028003a000d00e00005003d0053
:100e50008fba97004505be004504be0085bf9f00c0
:100e6000140037000d48a3000b0032000fbe97009e
:100e70004c00be008cbf9f004f89de00cf91de008a
:100e80000002be0002037800820378000605be005f
:100e90000404be00070037008fb8970041007800b7
:100ea00081bf9f0000047800cfc4de0009057800f0
:100eb0008a057800e00f5400e08f5c00e00f5d00d1
:100ec000e08f5d001f003d003d00b3006000b800f2
:100ed0006011b80008045000898458000a055900c0
:100ee0008b855900170037000d00e00005003d001c
:100ef0000fb997004205be004204be0082bf9f00aa
:100f0000100037000d48a300070032000fba970009
:100f10004400be0084bf9f006011b8000205be00ff
:100f20000004be00070037008fba97004500780024
:100f300085bf9f0000047800090020000a002000ff
:100f40000b0020003fb697000c00e00007003a00bd
:100f5000e00f5400e08f5c00e00f5d00e08f5d006b
:100f600002003a0010002000b0b79f008d0078000a
:100f7000010cb200e1b79f0000042000808f5000f8
:100f80003000320003003c000100e00008003200a5
:100f900040003700000820006fb19700800f51001b
:100fa00014003200000c2000800f510039003a007c
:100fb00014c0b300c54121000b0037000400fb0042
:100fc0004300dd00050040005001be004000be00af
:100fd0000040e10001c8e10002d0e10003d8e100d7
:100fe0002b0039000442e800f44f5200f3ff3a00ae
:100ff0002700370000012000010020006011b80028
:1010000014c0b3000040e10001c8e10002d0e100db
:1010100003d8e1001e003900450020000000d00088
:101020008180d2000281d2008381d2008502e90052
:10103000faff3a000442e800f04f5200f1ff3a0094
:101040001300370080002000010020006011b8006c
:1010500014c0b3000040e10001c8e10002d0e1008b
:1010600003d8e1000a0039003c0020000000d00055
:101070008180d2000281d2008381d2000c06e90077
:10108000faff3a000442e800f54f5200f1ff3a003f
:10109000e4d79f00efd097000100fb003fb197001d
:1010a000820f500002003d00e2d79f00040037008d
:1010b0003fb29700800f520001003d00b0b79f0083
:1010c000cfb297000500e0000400320063806600a4
:1010d000020032008502e900c5b79f000de8a300b9
:1010e0000b0032004fb697003fb09700800f5600bc
:1010f00003003c008000eb00c1b79f0004003700f4
:101100004fb197003fb2970004015100c2b79f0052
:10111000efd297000500fb000006eb00dcaf9f005c
:10112000cfb09700808f5000020034000080500044
:10113000d0af9f000d28a30037003200e180660089
:101140000d18a3000c003200d00220000100e000c6
:1011500001003a000080e900ffb097009c01070001
:10116000e10f40000e0032002fb197000201e800ad
:10117000a2b79f000a0037000100e000080032001b
:10118000ffb097000002200091010700e10f40002e
:10119000030032002fb297000402e800a4b79f00ba
:1011a000dfaa97000500e0000f0032000006eb0008
:1011b000ffb097000003200085010700e10f400009
:1011c000030032002fb097000000e800a0b79f0096
:1011d0000c06e800dfa89700810f5600f4ff3a00e4
:1011e0000001eb00d2af9f003fb29700c320dd00ab
:1011f000404121008080400091b79f004220dd00e7
:101200006400500080b79f006320b900f0af9f00da
:101210006306500084003700dfaa97000500e00055
:1012200011003200688066000f003a000006780066
:10123000ffb097000002200065010700e10f4000a9
:10124000030032002fb097000000e800a0b79f0015
:101250000c06e800dfa89700810f5600f4ff3a0063
:101260000001eb00d2af9f00e18066000d18a300e3
:101270000c003200d00220000100e00001003a0022
:101280000080e900ffb0970051010700e10f400026
:10129000d5ff32002fb297000402e800a4b79f00e8
:1012a000d1ff37000100e000cfff3200ffb0970010
:1012b0000002200046010700e10f4000caff320093
:1012c000afb297008502e800a5b79f00c6ff3700c0
:1012d00000042000efb09700808f500031003200f2
:1012e00003003c000100e000080032003e0037002f
:1012f000000820006fb19700800f510011003200ec
:10130000000c2000800f510037003a001fb09700fa
:101310003002be002003be000800be000a01be006d
:10132000c2020700a4002000050020006033b800be
:10133000c502070004c3b30004424000e4d79f0085
:1013400029003700354c2100d5b79f000d58a30068
:1013500002003a00404d2100d0b79f001400200049
:10136000050020006033b8008fb097008100e900cd
:10137000050033000402d0008582d2000683d2002b
:101380008783d200f9ff37000800be000a01be00c3
:10139000a60207006f0060005fb19700624078000e
:1013a0001000370014002000050020006033b80052
:1013b0000c0078000000e900050033000402d000b2
:1013c0008582d2000683d2008783d200f9ff3700de
:1013d0000800be000a01be009402070067406000da
:1013e0000043b000e0d79f00efd097000100fb0062
:1013f000ffb09700f6000700e10f40000300320045
:101400002fb197000201e800a2b79f001fb297001a
:101410006802520094b79f008fb29700e482520096
:1014200085b79f0063065600d0ff2f003fb197009d
:101430000090b9007faa97000000420063005000ae
:10144000800f5600a2ff3a000d38a30010003200b2
:10145000dfaa97000500e0000d0034000006eb0055
:10146000ffb0970000022000d9000700e10f400004
:10147000030032002fb097000000e800a0b79f00e3
:101480000c06e800dfa89700810f5600f4ff3a0031
:10149000be407800e1d79f000104e0005dfd3a0006
:1014a0002fb097004f0778004f06be004f05be00d3
:1014b0004f04be00ef01b10000000600889fbe008f
:1014c0008a9fbe008c9fbe00000178004151210020
:1014d0001100e0000b003a0080512100a0a8880014
:1014e00080a88800c1a8880091a8880021409000a9
:1014f0000004a000a0409800614090000004a000fb
:10150000e0409800e7004100c208de00c20cdd00a8
:1015100094a880004d52210040cf21000d055000bd
:1015200022002000811f7800110009000205d80068
:1015300000067800cf007800c308dd00e485400095
:101540008001eb0046522100455121000100370087
:1015500001027800244090000008a300020032003d
:101560000a003700110a78009400780021409000aa
:101570000008a300fbff320009014200828f5000e7
:1015800002003900840f51004600310094007800b9
:10159000848f5000eeff3e00868f5000020039001d
:1015a000858f5000eaff390080a88000800f52002c
:1015b0004f003a00858f50004d003a008301e8004b
:1015c000e18f5100e2ff36008c8f5400040036009a
:1015d0008a8f5400020031000b047800120037009b
:1015e000614ab8006151b900b0ff2f00010020002e
:1015f0000200500083805800800f5200818f5a00f3
:101600000200350009047800070037000d805400ff
:1016100072cf210002004000110009000a80d800aa
:101620000a80b90000047800080078003301070040
:1016300080017800e10f40002d00320080a880007a
:101640000308780082a8800064004100a240900056
:10165000808f5100020032000104a0000100370019
:101660000104a1002141980008804100640050005d
:101670008009780080a88800425121000208780083
:1016800081a88000214090000004a000a0409800a4
:10169000234090000004a100a041980002027800bd
:1016a000a7ff370092a88800828f500009003600fb
:1016b00092007800e0502100a24190000348780099
:1016c00061a88800140978008040eb0090a8800091
:1016d0002140980090a88000000a780024409000e3
:1016e0000004a0002042980064004200010037007e
:1016f0000000eb004f06be004f05be004f04be00c9
:10170000000006006400500090a88800a0409000ef
:101710000104a1002140980000000600889fbe003f
:101720008a9fbe0000057800e401500013001000fd
:10173000c285de00234090000008a30004003200b0
:1017400093a88800234090000004a100a0419800c5
:101750000100780059ff0700000478000000e00055
:10176000170032008a0f50001500320060b8970051
:1017700008005000c284de00898f55000100360049
:10178000890578004259dd008a0078000800780059
:101790009c0007008a0f5400090031004248dd0018
:1017a000000044008a0f5000050036000a00500077
:1017b0000000440062a8800073a880000288be0078
:1017c000080078004f05be004f04be000000060070
:1017d000889fbe000001780001047800b1009000ed
:1017e0000118a300400032000198a30003003a0052
:1017f000180090000000e0003b003a000190a000bb
:101800003104980082047800f90fb20018009000ab
:101810000000e00002003a0028009000000c780070
:10182000ea8f540006003a00380090000078a300c8
:1018300003003a0088007800d0002000e4ff070091
:10184000180290006121b90058009000e800900053
:10185000800f5100818f59000b0032000400e80016
:10186000100498001800780009587800000c7800df
:1018700011c0b3000052210001487800ea8f5400e3
:10188000060032001900370088007800094078000f
:101890001900070080047800140037003800900019
:1018a0000088a3001100320018019000a8009000e9
:1018b000480090005a00070098009000810f5000e7
:1018c00004003200380090000003b3003004980098
:1018d0008084eb000000eb001004980028009000ca
:1018e000000c7800010037008084eb0009007800cc
:1018f0004f04be00000006000200fa00889fbe00f0
:10190000a0ff9f0001047800b100900081047800de
:101910000904b200020032000000fb00360037006c
:101920000118a30005003a000103b3003104980038
:10193000190498000080eb002f0037005800900039
:101940000000e00006003a0048009000120020006d
:10195000e680570032000700190498002400370081
:10196000280090000000e00008003a00c05121006b
:1019700020049800000c78002000200050049800fb
:10198000100498000130a000310498001801900064
:10199000a800900048009000210007002800900057
:1019a000000c78000080eb0010049800180078000c
:1019b000aff8970001587800000c78002ff89700d6
:1019c000ea4f50000a003a00380090000088a30057
:1019d0000700320018019000a80090004800900015
:1019e0000f00070019049800a8009000010c78006f
:1019f000aff897000100fb004f04be000080fa0022
:101a0000000006008001eb000200370061f0790061
:101a10008301e800828f5100fcff3a0000000600bd
:101a20000a00fa0080017800e20f500028003e0012
:101a3000b06f8000e10f50000800320080232000ca
:101a40000000e000050032000423200025232000d0
:101a50004623200080017800040037000422200083
:101a600025222000462220008322200014409000de
:101a70000004e000040035008009eb0014409000f1
:101a80000074a00010429800154090000028a300a8
:101a900003003a00154090000024a00090429800f6
:101aa0008001eb0007003700154090000008a300fc
:101ab000fdff320063c078000000fb00000b7800df
:101ac0008301e800828f5100f7ff3a0008003700d9
:101ad00030002000b0bf9f00c3bf9f00d1bf9f0058
:101ae000e2bf9f006a80570000c0da006fb997001c
:101af000020078000080fa0000000600889fbe0007
:101b00008004780010a980000000e00003003a0083
:101b1000100007000000e0000a00350010a9800056
:101b20000900e00002003a000004780006003700d7
:101b30000004780009004000060007000000e000f3
:101b400001003d000084eb00080078004f04be0057
:101b500000000600800078000000e00004003a0069
:101b60004052210010a988000101780006003700ca
:101b70000081eb0040cf2100808f500002003e002a
:101b800011a988000001eb000200780000000600a7
:101b9000881f7800000478005001be004000be009d
:101ba0000400400085804800060149008781490003
:101bb000009cbe000294be000400e1000588e10024
:101bc0000690e1000798e10002003100680044003f
:101bd0001008e8004f04780000000600f487470072
:101be000889fbe008a9fbe008c9fbe008e1f78001b
:101bf0000205be000004be00d4b79f00e5b79f00f9
:101c0000f6b79f0087bf9f000000eb00c0b79f00a2
:101c1000b0b79f00a0b79f0090b79f0080b79f000c
:101c20000d042000bfb097004fb0970000014000a6
:101c30000000e0000f003d004f08de0000007100d2
:101c4000c0b79f004d00070001003d0012002000ba
:101c50005000070001003d00120020005500070061
:101c600061000700660007000f004000c8ff070082
:101c7000220037004f08de0000067100ccb79f003d
:101c80003e00070001003d00120020004100070057
:101c900001003d001200200046000700520007002e
:101ca0000fb297009fb297002fb39700bfb3970072
:101cb000590007000000520081805a0002015b00b9
:101cc00083815b0080b79f0091b79f00a2b79f0000
:101cd000b3b79f000007eb004f0007000020e100b2
:101ce00001a8e10002b0e10003b8e1000100310009
:101cf0001e0020000e005600c0b79f004fb2970094
:101d00000400e00007003500100020000100200062
:101d10006011b80008047000898470000a05710021
:101d20008b8571008d06e900beff3a000400e000db
:101d300003003d00320007000f00400094ff070041
:101d40004fa897000000e00004003a000fb497008d
:101d50009fb497002fb59700bfb597000800be004d
:101d60000a01be004f0778004f06be004f05be00b7
:101d70004f04be004f01b10000000600018040008a
:101d800090b79f000001eb008fb097000100e000ca
:101d9000000006000200700090b79f000180400024
:101da00080b79f000001eb00ffa897000100e00052
:101db000000006000200700080b79f000180400014
:101dc0006faa9700cf20de0001007000f0af9f00e7
:101dd000040242000800be000a01be004f18de00e7
:101de0000002720000000600e4af9f0008044400f7
:101df00089844c000a054d008b854d0000000600cb
:101e00003fb29700cfb297005fb39700efb3970050
:101e100000fe2f00000006003fb09700cfb09700f3
:101e20005fb19700efb1970000000600881f7800af
:101e300018002000881f780068ff07008f87e900de
:101e40004f04780000000600801feb0063ff0700ce
:101e50008f87e90000000600889fbe008a9fbe00b1
:101e60008c1f78000205be000004be00e00f500089
:101e7000e08f5800e00f5900e08f59000c003d0042
:101e80006000b8006011b800080450008984580050
:101e90000a0559008b8559001c0020001f0007000f
:101ea00008003d00180007000006eb0005003700a1
:101eb0000006eb001900070002003d000f000700bc
:101ec0001c0020000800be000a01be00d7ff07006a
:101ed0000203be000002be000c00e0000100320060
:101ee000060007000400be000601be004f06780091
:101ef0004f05be004f04be00000006006000b800a1
:101f00006011b800000037000402500085825800bc
:101f1000060359008783590000000600e00f5200b5
:101f2000e08f5a00e00f5b00e08f5b0000000600ce
:101f3000889fbe008a9fbe008c1f78000205be00ed
:101f40000004be00e00f5000e08f5800e00f590081
:101f5000e08f59000a003d006000b8006011b80031
:101f600008045000898458000a0559008b855900df
:101f70001c0020001800070007003d000500370086
:101f80000006eb001400070003003d006000b800ed
:101f90006011b800150007000800be000a01be006d
:101fa000a9ff07000203be000002be000c00e00013
:101fb000030032006000b8006011b8000b00070099
:101fc0000400be000601be004f0678004f05be00ab
:101fd0004f04be0000000600e00f5200e08f5a00e0
:101fe000e00f5b00e08f5b00000006000402500081
:101ff00085825800060359008783590000000600b7
:020000040000fa
:020000040001f9
:0457f00013ff0000a3
:020000040000fa
:020000040001f9
:0457f400c0fc0000f5
:020000040000fa
:020000040001f9
:0457f8000e9b000004
:020000040000fa
:020000040001f9
:0457fc00603f00000a
:020000040000fa
:1000080086610000a6610000c6610000e66100008c
:1000180006620000866100008661000086610000bb
:10002800866100008661000086610000866100002c
:10003800866100008661000086610000866100001c
:10004800c6600000866100008661000086610000cd
:1000580086610000e860000086610000866100009b
:1000680086610000866100008661000086610000ec
:1000780086610000866100008661000086610000dc
:1000880086610000866100008661000086610000cc
:1000980086610000866100008661000086610000bc
:1000a80086610000866100008661000086610000ac
:1000b800866100008661000086610000866100009c
:1000c800866100008661000086610000866100008c
:1000d800866100008661000086610000866100007c
:1000e800866100008661000086610000866100006c
:1000f800866100008661000086610000866100005c
:10010800866100008661000086610000866100004b
:10011800866100008661000086610000866100003b
:10012800866100008661000086610000866100002b
:10013800866100008661000086610000866100001b
:10014800866100008661000086610000866100000b
:1001580086610000866100008661000086610000fb
:1001680086610000866100008661000086610000eb
:1001780086610000866100009075000086610000bd
:1001880086610000866100008661000086610000cb
:1001980086610000866100008661000086610000bb
:1001a80086610000866100008661000086610000ab
:1001b800866100008661000086610000866100009b
:1001c800866100008661000086610000866100008b
:1001d800866100008661000086610000866100007b
:1001e800866100008661000086610000866100006b
:0801f800866100008661000031
:020000040000fa
:1002080086610000a6610000c6610000e66100008a
:1002180006620000866100008661000086610000b9
:10022800866100008661000086610000866100002a
:10023800866100008661000086610000866100001a
:10024800c6600000866100008661000086610000cb
:1002580086610000e8600000866100008661000099
:1002680086610000866100008661000086610000ea
:1002780086610000866100008661000086610000da
:1002880086610000866100008661000086610000ca
:1002980086610000866100008661000086610000ba
:1002a80086610000866100008661000086610000aa
:1002b800866100008661000086610000866100009a
:1002c800866100008661000086610000866100008a
:1002d800866100008661000086610000866100007a
:1002e800866100008661000086610000866100006a
:1002f800866100008661000086610000866100005a
:100308008661000086610000866100008661000049
:100318008661000086610000866100008661000039
:100328008661000086610000866100008661000029
:100338008661000086610000866100008661000019
:100348008661000086610000866100008661000009
:1003580086610000866100008661000086610000f9
:1003680086610000866100008661000086610000e9
:1003780086610000866100009075000086610000bb
:1003880086610000866100008661000086610000c9
:1003980086610000866100008661000086610000b9
:1003a80086610000866100008661000086610000a9
:1003b8008661000086610000866100008661000099
:1003c8008661000086610000866100008661000089
:1003d8008661000086610000866100008661000079
:1003e8008661000086610000866100008661000069
:0803f80086610000866100002f
:020000040000fa
:102000000d0a0000003a00005c0000003c6e000079
:102010006f2000006c610000626500006c3e0000f3
:102020003a5c0000003e0000200000000d0a0000a5
:102030002a2a00002a2a00002a2000005553000006
:102040004220000045720000726f00007220000004
:102050002d200000646500007669000063650000c3
:102060002072000065710000756900007265000053
:1020700073200000746f00006f2000006d75000079
:102080006368000020630000757200007265000044
:102090006e740000202a00002a2a00002a2a00006c
:1020a0000d0a0000000d00000a2a00002a2a000084
:1020b0002a2a00002055000053420000204500005d
:1020c000727200006f720000202d00002068000076
:1020d000756200007320000061720000652000003e
:1020e0006e6f0000742000007375000070700000b7
:1020f0006f72000074650000642000002a2a00004e
:102100002a2a00002a0d00000a0000000d0a000023
:102110002a2a00002a2a00002a2000005553000025
:102120004220000045720000726f00007220000023
:102130002d200000646500007669000063650000e2
:1021400020690000732000006e6f00007420000002
:1021500073750000707000006f72000074650000fd
:10216000642000002a2a00002a2a00002a0d00000c
:102170000a00000020200000204900006620000026
:102180007468000065200000646500007669000046
:1021900063650000206900007320000061200000da
:1021a00074680000756d0000622000006472000019
:1021b00069760000652c0000206900007420000092
:1021c000707200006f620000616200006c790000b4
:1021d000207500007365000073200000610d000091
:1021e0000a0000002020000020740000726100003e
:1021f0006e730000706f00007274000020700000a9
:10220000726f0000746f0000636f00006c200000ac
:102210006f740000686500007220000074680000a0
:10222000616e00002053000043530000492c000061
:1022300020730000756300006820000061730000d7
:1022400020530000464600002d38000030370000c3
:10225000306900002e0d00000a0000000d0a000089
:102260002a2a00002a2a00002a20000055530000d4
:102270004220000045720000726f000072200000d2
:102280002d200000636100006e6e00006f7400007e
:10229000206500006e7500006d6500007261000031
:1022a000746500002064000065760000696300002a
:1022b000652000002a2a00002a2a00002a0d0000ba
:1022c0000a0000000d0a00002a2a00002a2a000045
:1022d0002a200000555300004220000045720000f3
:1022e000726f0000722000002d200000636c00005f
:1022f000696500006e7400002064000072690000cf
:102300007665000072200000696e000069740000ac
:10231000696100006c6900007a6100007469000066
:102320006f6e000020650000727200006f72000086
:10233000202a00002a2a00002a2a00000d0a000094
:10234000000d00000a2a00002a2a00002a2a0000a4
:10235000205500005342000020450000727200002a
:102360006f720000202d0000206f000075740000c7
:10237000206f0000662000006865000061700000aa
:10238000206d0000656d00006f7200007920000074
:102390002a2a00002a2a00002a0d00000a00000054
:1023a0000d0a00002a2a00002a2a00002a20000024
:1023b000555300004220000045720000726f00007b
:1023c000722000002d200000756e00007370000068
:1023d0006563000069660000696500006420000014
:1023e0002a2a00002a2a00002a0d00000a00000004
:1023f00041500000504500004e44000000420000e3
:102400004155000044000000434400000043000028
:102410004f500000590000004441000054450000a6
:1024200000440000454c00000044000049520000f8
:10243000004c000053000000484500004c500000d4
:10244000003f0000004c00004f470000004d00001e
:10245000440000004d4f00004445000000520000c1
:1024600045410000440000005244000000520000ba
:10247000454e000000520000455300004554000046
:1024800000540000494d0000450000005459000070
:10249000504500000057000052490000544500001c
:1024a00000570000484f0000000d00000a2a0000fd
:1024b0002a2a00002a2a000020550000534200006a
:1024c00020450000727200006f720000202d000095
:1024d000206f0000766500007263000075720000d6
:1024e000726500006e7400002064000065740000d6
:1024f0006563000074650000642000002a2a000063
:102500002a2a00002a0d00000a000000453a0000b7
:102510003d5500005342000020450000727200004b
:102520006f720000202d0000206f00007665000013
:102530007263000075720000726500006e74000026
:10254000206400006574000065630000746500008d
:10255000640d00000a0000003e0000000d0a0000ab
:1025600041500000503a0000204300006f75000009
:102570006c640000206e00006f7400002069000091
:102580006e69000074690000616c0000697a0000e7
:10259000652000006d65000064690000612e000088
:1025a000202000004d6500006469000061200000eb
:1025b000666f0000726d000061740000206d000005
:1025c000757300007420000062650000200d00009b
:1025d0000a0000002020000020200000204600000b
:1025e00041540000206f00007220000046410000ae
:1025f00054330000322c0000206100006e640000a3
:102600002073000065630000746f000072200000fa
:10261000736900007a650000206d0000757300008a
:102620007420000062650000203000007800000087
:102630002e0d00000a0000000d0a00005468000082
:102640006973000020740000687500006d6200006e
:1026500020640000726900007665000020690000b7
:10266000732000006e6f000074200000737500007e
:10267000707000006f72000074650000642e00002e
:10268000205000006c6500006173000065200000b0
:1026900072650000706c000061630000652000003e
:1026a0007769000074680000206100002064000069
:1026b0006966000066650000726500006e740000c7
:1026c000206d00006f640000656c00002e0d00009e
:1026d0000a0000002a2e00002a0000000d0a000057
:1026e0002a2a00002a2a00002a2000005553000050
:1026f000422000006f7600006572000063750000e4
:1027000072720000656e000074200000636f0000ac
:102710006e64000069740000696f00006e200000a4
:10272000726500006d6f0000766500006420000097
:102730002a2a00002a2a00002a0d00000a000000b0
:1027400025300000346400002d25000030320000e8
:10275000642d0000253000003264000020000000dd
:1027600025300000326400003a25000030320000bd
:10277000643a0000253000003264000020000000b0
:102780003c440000495200003e2000002020000090
:102790002020000020200000202000002020000039
:1027a0000020000020200000202000002531000033
:1027b000306c000064200000002100002045000073
:1027c000727200006f7200002077000072690000d2
:1027d000746900006e670000206c00006f670000e5
:1027e00020660000696c0000650d00000a00000012
:1027f0000d0a00000d0a00002a2a00002a2a000003
:102800002a2000004c69000074650000426c000042
:102810007520000045780000706c00006f720000a9
:102820006572000020760000312e0000303000007c
:10283000202a00002a2a00002a2a00000d0a00008f
:102840000d0a0000004500003a3d0000004e000067
:102850006f2000006d6500006469000061200000c9
:102860007072000065730000656e0000740d00005a
:102870000a0000004f6e000065200000706100003b
:10288000726100006d6500007465000072730000e5
:10289000207200006571000075690000726500001b
:1028a000640d00000a000000610000004572000095
:1028b000726f00007220000063720000656100000a
:1028c000746900006e67000020660000696c0000fb
:1028d000650d00000a0000003234000030300000b6
:1028e0000042000061750000647200006174000025
:1028f0006520000063680000616e000067650000ed
:1029000064200000746f00002032000034300000aa
:10291000300d00000a0000003438000030300000a4
:1029200000420000617500006472000061740000e4
:102930006520000063680000616e000067650000ac
:1029400064200000746f0000203400003830000064
:10295000300d00000a000000393600003030000061
:1029600000420000617500006472000061740000a4
:102970006520000063680000616e0000676500006c
:1029800064200000746f0000203900003630000021
:10299000300d00000a000000313400003430000027
:1029a00030000000426100007564000072610000a8
:1029b0007465000020630000686100006e6700001d
:1029c00065640000207400006f20000031340000b6
:1029d00034300000300d00000a00000031390000e2
:1029e00032300000300000004261000075640000d9
:1029f00072610000746500002063000068610000df
:102a00006e67000065640000207400006f20000005
:102a10003139000032300000300d00000a000000a3
:102a20003238000038300000300000004261000001
:102a3000756400007261000074650000206300008e
:102a4000686100006e67000065640000207400008b
:102a50006f2000003238000038300000300d0000d8
:102a60000a0000003338000034300000300000005d
:102a7000426100007564000072610000746500002e
:102a800020630000686100006e670000656400005c
:102a9000207400006f200000333800003430000044
:102aa000300d00000a00000035370000363000000d
:102ab0003000000042610000756400007261000097
:102ac0007465000020630000686100006e6700000c
:102ad00065640000207400006f200000353700009e
:102ae00036300000300d00000a00000031310000d7
:102af00035320000303000000042000061750000f7
:102b000064720000617400006520000063680000ca
:102b1000616e00006765000064200000746f0000b3
:102b2000203100003135000032300000300d00004f
:102b30000a00000050610000726100006d65000035
:102b4000746500007220000072650000717500005d
:102b500069720000656400000d0a00000045000075
:102b6000727200006f720000207000006572000039
:102b7000666f0000726d0000696e00006720000043
:102b8000636f00006d6d0000616e0000640d000059
:102b90000a000000547700006f2000007061000000
:102ba000726100006d6500007465000072730000c2
:102bb00020720000657100007569000072650000f8
:102bc000640d00000a000000466900006c6500000a
:102bd000206e00006f740000206600006f7500001a
:102be0006e6400000d0a0000007200000045000045
:102bf000727200006f720000206f000070650000ac
:102c00006e6900006e67000020660000696c0000bd
:102c1000650d00000a00000077000000457200000a
:102c2000726f00007220000077720000697400006b
:102c3000696e000067200000666900006c65000096
:102c40000d0a00000043000075720000726500006c
:102c50006e7400002064000061740000653a00009a
:102c600020000000496e0000766100006c690000e1
:102c7000642000006461000074650000207300009f
:102c8000706500006369000066690000656400000b
:102c90000d0a0000004e00006f2000006669000071
:102ca0006c65000073200000666f0000756e000008
:102cb000640d00000a0000000d0a00004c690000cd
:102cc00074650000426c000075200000466c000036
:102cd0006173000068200000447200006976000003
:102ce0006520000045780000706c00006f720000e5
:102cf0006572000020000000763100002e300000d8
:102d0000300000000d0a00000d0a000041760000ae
:102d1000616900006c610000626c000065200000c9
:102d2000636f00006d6d0000616e00006473000051
:102d30003a0d00000a0000002020000020200000c2
:102d400041500000504500004e440000203c00006f
:102d5000666900006c6500003e2000002020000035
:102d60002020000020200000202d00002041000035
:102d700070700000656e000064200000696e000045
:102d80007075000074200000746f00002065000062
:102d90006e640000206f000066200000657800006f
:102da00069730000746900006e670000203c000039
:102db000666900006c6500003e2e00000d0a0000f0
:102dc0000020000020200000202000002020000023
:102dd00020200000202000002020000020200000f3
:102de00020200000202000002020000020200000e3
:102df000202000002020000054650000726d0000bb
:102e0000696e0000617400006520000064610000cc
:102e100074610000206500006e740000727900008b
:102e2000207700006974000068200000436f0000f4
:102e30006e740000726f00006c2d00005a0d0000cf
:102e40000a00000020200000202000004241000075
:102e500055440000203c0000766100006c750000c5
:102e6000653e0000202000002020000020200000ff
:102e700020200000202d0000205300006574000079
:102e80002053000065720000696100006c200000a2
:102e9000506f000072740000204200006175000055
:102ea0006420000052610000746500000d0a0000fb
:102eb0000020000020200000202000002020000032
:102ec0002020000020200000202000002020000002
:102ed00020200000202000002020000020200000f2
:102ee00020200000202000005b3200003430000071
:102ef000307c000034380000303000007c390000a5
:102f000036300000307c00003134000034300000e6
:102f1000307c00003139000032300000307c00008d
:102f20003338000034300000307c000035370000ba
:102f300036300000307c00003131000035320000b6
:102f4000303000005d0d00000a000000202000006d
:102f50002020000043440000203c00006e6100007f
:102f60006d6500003e2000002020000020200000b1
:102f7000202000002020000020200000202d000044
:102f800020430000686100006e67000065200000bb
:102f90004469000072650000637400006f720000f5
:102fa000790d00000a000000202000002020000011
:102fb000434f000050590000203c000066690000ab
:102fc0006c650000313e0000203c00006669000096
:102fd0006c650000323e0000202d00002043000000
:102fe0006f700000792000003c660000696c0000f2
:102ff000653100003e200000746f0000203c00009e
:10300000666900006c650000323e00000d0a000099
:103010000020000020200000204400004154000057
:10302000452000005b79000079790000792d0000cf
:103030006d6d00002d640000645d00002020000024
:10304000202000002d200000446900007370000063
:103050006c610000792000004f72000020530000d6
:1030600065740000205400006865000020440000e2
:1030700061740000650d00000a00000020200000bf
:1030800020200000444500004c2000003c66000069
:10309000696c0000653e0000202000002020000038
:1030a000202000002020000020200000202d000013
:1030b00020440000656c000065740000652000007d
:1030c000466900006c6500002c200000437500007c
:1030d00072720000656e00007420000044690000f8
:1030e00072650000637400006f72000079200000b8
:1030f0004f6e00006c7900000d0a000000200000f7
:10310000202000002044000049520000205b000005
:103110006e6100006d6500005d2000002020000051
:10312000202000002020000020200000202000009f
:103130002d20000044690000737000006c610000e5
:10314000792000004469000072650000637400008b
:103150006f720000790d00000a00000020200000be
:1031600020200000484500004c500000206f000067
:10317000722000003f2000002020000020200000de
:10318000202000002020000020200000202d000032
:103190002044000069730000706c00006179000039
:1031a00020480000656c0000700d00000a0000005f
:1031b00020200000202000004c530000205b000075
:1031c0006e6100006d6500005d20000020200000a1
:1031d00020200000202000002020000020200000ef
:1031e000202d0000204c00006973000074200000b6
:1031f0004469000072650000637400006f72000093
:10320000792e000020530000616d00006520000051
:103210006173000020440000495200000d0a0000c4
:103220000020000020200000204d0000442000006d
:103230003c6e0000616d0000653e00002020000033
:10324000202000002020000020200000202000007e
:10325000202000002d2000004d6100006b65000063
:10326000204400006972000065630000746f000074
:10327000727900000d0a00000020000020200000ec
:10328000204d00004f440000452000003c54000049
:10329000455200004d7c00004d430000553e0000ab
:1032a0002020000020200000202000002d20000011
:1032b0005365000074200000746800006520000061
:1032c0006d6f0000646500002e2000005465000052
:1032d000726d0000696e0000616c0000206f0000dc
:1032e000722000004d690000637200006f630000ef
:1032f0006f6e0000747200006f6c00006c6500005f
:10330000720d00000a0000002020000020200000b4
:1033100052440000203c00006e6100006d6500001a
:103320003e2000002020000020200000202000007f
:103330002020000020200000202d0000205200004e
:10334000656d00006f760000652000006469000074
:1033500072650000637400006f720000790d000058
:103360000a0000002020000020200000524500003c
:1033700041440000203c0000666900006c650000cc
:103380003e2000003c6e0000756d00003e200000f5
:1033900020200000202d0000205200006561000068
:1033a000642000006c6900006e650000203c000095
:1033b0006e7500006d3e000020660000726f000018
:1033c0006d2000003c660000696c0000653e000056
:1033d0002c2000003c6e0000756d00003e200000b7
:1033e00073740000617200007473000020610000bb
:1033f00074200000300d00000a00000020200000b2
:1034000020200000524500004e2000003c660000d5
:10341000696c0000653100003e2000003c66000041
:10342000696c0000653200003e200000202d000085
:1034300020520000656e0000616d000065200000f4
:103440005b660000696c0000653100005d200000d3
:10345000746f0000205b0000666900006c6500006e
:10346000325d00000d0a0000002000002020000056
:10347000205200004553000045540000203c00004d
:1034800048410000524400007c5300004f460000b9
:10349000543e000020200000202000002d200000cd
:1034a0005265000073650000742000004d65000047
:1034b00064690000612e000020450000697400006e
:1034c000686500007220000048610000726400001e
:1034d000207200006573000065740000206f00001a
:1034e00072200000536f000066740000207200001c
:1034f00065730000657400000d0a000000200000e4
:103500002020000020540000494d0000452000000c
:103510005b680000683a00006d6d00003a730000bf
:10352000735d00002020000020200000202000000b
:103530002d20000044690000737000006c610000e1
:10354000792000006f720000207300006574000095
:10355000207400006865000020740000696d0000a0
:10356000652000002832000034200000687200004e
:10357000206600006f7200006d6100007429000079
:103580000d0a000000200000202000002054000050
:1035900059500000452000003c660000696c0000a6
:1035a000653e0000202000002020000020200000b8
:1035b00020200000202000002d200000507200007c
:1035c000696e0000742000006f7500007420000018
:1035d000636f00006e740000656e0000747300007d
:1035e000206f000066200000666900006c65000026
:1035f0002c2000006375000072720000656e0000f0
:1036000074200000646900007265000063740000ab
:103610006f720000792000006f6e00006c7900006e
:103620000d0a00000d0a000000200000202000000c
:10363000205700005249000054450000203c000083
:10364000666900006c6500003e200000202000003c
:103650002020000020200000202000002d2000005d
:10366000437200006561000074650000203c0000aa
:10367000666900006c6500003e2000006672000074
:103680006f6d0000206900006e700000757400000e
:103690002e0d00000a000000202000002020000065
:1036a000574800004f20000020200000202000008c
:1036b000202000002020000020200000202000000a
:1036c0002020000020200000202d000020440000c9
:1036d00069730000706c00006179000020740000c4
:1036e0006865000020560000494400002061000089
:1036f0006e6400002050000049440000206f00006c
:1037000066200000746800006520000061740000fd
:1037100074610000636800006564000020640000bc
:103720006576000069630000650d00000a0d000069
:103730000a00000054450000524d0000004d0000fa
:1037400043550000000d00000a2000002d2000005d
:1037500045720000726f0000722000007265000068
:1037600061640000696e0000672000006669000067
:103770006c6500000d0a0000004500003a3d0000a5
:1037800045720000726f0000722000007265000038
:1037900061640000696e0000672000006669000037
:1037a0006c6500000d0a000000430000616e00001f
:1037b0006e6f000074200000666900006e640000f7
:1037c00020660000696c0000650d00000a00000022
:1037d000534f0000465400000048000041520000d2
:1037e000440000004375000072720000656e000026
:1037f00074200000746900006d6500003a2000002c
:10380000004900006e760000616c000069640000f1
:1038100020740000696d00006520000073700000d6
:10382000656300006966000069650000640d0000c2
:103830000a00000056490000443a00002030000011
:103840007800000020500000494400003a200000a9
:1038500030780000005500006e73000075700000a5
:10386000706f000072740000656400002063000047
:103870006f6d00006d6100006e6400000d0a0000b5
:103880000025000030310000306c0000642c000086
:1038900025300000356400000d0a00000021000002
:1038a00021210000204400006566000061750000d1
:1038b0006c740000206900006e74000065720000e6
:1038c000727500007074000020680000616e0000d6
:1038d000646c0000657200002021000021210000be
:1038e0000d0a00000021000021210000204f0000ef
:1038f00073630000696c00006c610000746f00006d
:103900007220000046610000696c00002069000020
:103910006e74000065720000727500007074000023
:1039200020680000616e0000646c00006572000099
:1039300020210000212100000d0a000000210000cc
:103940002121000020410000646400007265000035
:103950007373000020450000727200006f72000057
:10396000206900006e74000065720000727500002e
:103970007074000020680000616e0000646c00003c
:103980006572000020210000212100000d0a0000c6
:10399000002100002121000020530000746100007c
:1039a000636b000020450000727200006f7200001f
:1039b000206900006e7400006572000072750000de
:1039c0007074000020680000616e0000646c0000ec
:1039d0006572000020210000212100000d0a000076
:1039e0000021000021210000204d00006174000032
:1039f0006820000045720000726f00007220000015
:103a0000696e00007465000072720000757000003d
:103a100074200000686100006e6400006c650000a6
:103a20007220000021210000210d00000a0000008a
:103a300030310000323300003435000036370000ea
:103a40003839000041420000434400004546000070
:083a50002e2e00000000000012
:020000040000fa
:103a5800881f7800000478000202be0020609000f1
:103a6800e34f500010003200e10f5100e08f590081
:103a78000d003e00a84890008180fb003848900067
:103a88004800dd0001017000c84890008180fb00fb
:103a9800584890004800dd00810170000200420093
:103aa80083804a001200370062005200e0805a000a
:103ab800186190000281fb00030020000df307004d
:103ac800e84990008381fb00784990004811dd00a7
:103ad80003027100885190008381fb001851900007
:103ae8004811dd00830271000000420081804a0015
:103af8004f04780000000600614078000080fb0059
:103b080000000600889fbe00000478001080fb00bb
:103b1800184190004811dd00000171006000b800f4
:103b280004320700e14f50000200320080c0b300a9
:103b3800890037009880fb00184090004800dd009d
:103b480081047000e9f8930050c5b30080cf50009d
:103b580050003a00f9f89300a0cab30080cf500093
:103b68004c003a006103200009007800e2ff0700da
:103b780061c4b300814f50001f003a007103200058
:103b880009007800dcff070011c4b300814f500022
:103b980019003a008103200009007800d6ff0700c9
:103ba80041c5b300814f500013003a009103200033
:103bb80009007800d0ff070011c3b300814f5000ff
:103bc8000d003a006102200009007800caff0700d2
:103bd80091c2b300814f500007003a000040eb004b
:103be800204498003044980040449800504498007d
:103bf80020c0b30024003700210520000900780008
:103c0800bdff070061c4b300814f500021003a0096
:103c18003105200009007800b7ff070011c4b30080
:103c2800814f50001b003a00410520000900780030
:103c3800b1ff070041c5b300814f500015003a009d
:103c48005105200009007800abff070031c3b3001d
:103c5800814f50000f003a0021042000090078002d
:103c6800a5ff070091c2b300814f500009003a0038
:103c78000040eb00204498003044980040449800ed
:103c88005044980030c0b300206498000000eb0056
:103c980033003700e9f8930050c5b30080cf5000d7
:103ca80004003a00f9f89300a0cab30080cf50008e
:103cb8000200320040c0b30027003700e9c093007b
:103cc8008180fb0079c093004800dd00010170008d
:103cd80089c893008180fb0019c893004800dd0063
:103ce80081017000224498004810de00304498009a
:103cf800434498004818de005044980029c09300b7
:103d0800ee4f500013003e000000fb0012002000a0
:103d18008010dd00000524000080600007003a00e4
:103d2800008021000080600006003a000118a3000e
:103d380008003200226498000800370020c0b30051
:103d48000100370030c0b300206498000040eb0049
:103d58000200370050c0b300e0f2b7000080fb005b
:103d68004f04be0000000600810040001140900092
:103d78004800dd009180fb00010070000000060093
:103d8800889fbe008a9fbe008004780001047800e6
:103d98008180e800f4ff070001002000c005dd0075
:103da8000a0020008800780009007800eeff07006c
:103db8000100200000007500818075004f05be00dd
:103dc8004f04be0000000600ec874700889fbe0035
:103dd8008a9fbe008c9fbe008e1f78000005780069
:103de8001080fb001a4190004811dd0000017100ad
:103df8002a4290000482fb00ba419000c819dd00f5
:103e0800048071004a4290000482fb00da4190006d
:103e1800c819dd00848071004631070082c0b300f4
:103e2800e14f500074013a009a80fb001a4090005c
:103e38004800dd00810570000007eb000e007800e7
:103e4800670137001e002000ebf8930050c5b3004f
:103e580080cf5000f0003a00fbf89300a0cab300ee
:103e680080cf5000ec003a009a80fb001a40900086
:103e78004800dd0081047000e1002000090078009e
:103e8800b9ff070000047800d1002000090078007d
:103e980019ff0700106598006141b800f2b79f004c
:103ea80083bf9f00aa4190008381fb003a419000a4
:103eb8004811dd0003007100ca4190008381fb00b6
:103ec8005a4190004811dd00830071007fb19700ce
:103ed8008fb9970000004100818049006045980033
:103ee8004801de0072459800014d98004808de0040
:103ef800104d98000101200009007800fefe07001f
:103f080000659800610120000900780096ff07000d
:103f18006101b800f80f2000425d98004811de00ea
:103f2800525d98008000eb00615d9800715d98001b
:103f38000000e0000b003a00410220000900780070
:103f48008fff070008016000425d98004801de000d
:103f5800525d980008816000625d98004808de00a4
:103f6800705d9800ea4090008180fb007a409000e4
:103f78004800dd00010470008a4890008180fb0041
:103f88001a4890004800dd00810470000a60900023
:103f98000080fb0001002000ca5a90008582fb00c7
:103fa8005a5a90004822dd0005017200ea5a900032
:103fb8008582fb007a5a90004822dd008501720054
:103fc800ccf107000804400089844800284d980077
:103fd8004840de00304d9800494d98004848de00c2
:103fe800504d98001a80fb001a4490004844dd00a8
:103ff8000004740011012000080078005aff07002f
:1040080080047800205598004800de00305598005c
:10401800310120000800780053ff07006106b8004e
:104028000000e00004003a000102200008007800c7
:1040380053ff07000006be00b1002000080078000a
:1040480049ff0700000478000000e0007400320017
:104058000008a30072003a004548dd00080040004f
:104068000000e900110009000880d8006101b800cb
:10407800d2b79f00e3b79f000a6090000080fb0062
:1040880001002000ca5a90008582fb005a5a90000d
:104098004822dd0005017200ea5a90008582fb0083
:1040a8007a5a90004822dd008501720091f10700dc
:1040b8007fb197008fb997000200400083804800c5
:1040c8005fb19700efb1970000004100818049007f
:1040d8000000560081805e001a6190000281fb009a
:1040e8000300200073f107000001be00405598004e
:1040f8004800de0050559800635598004818de00c7
:104108007055980040ff2000800f5100e08f590043
:1041180002003e0010c0b3000500370020c0b30005
:10412800ec0f4100e08f59000100360030c0b300a9
:10413800206598002a609000e34f500017003a006d
:104148009a80fb001a4090004800dd0001007000d2
:10415800c10220000aff07001097880021978800f5
:10416800aa4990008381fb003a4990004811dd007c
:1041780003007100ca4990008381fb005a499000ee
:104188004811dd00830071005fb19700efb197001f
:10419800000041008180490014003700e232ef003e
:1041a800e432ef00aa4890008180fb003a48900072
:1041b8004800dd0001027000ca4890008180fb00c1
:1041c8005a4890004800dd00810270002a51900092
:1041d8000281fb003a5090004800dd0002007000a8
:1041e8004400de0000004200e0804a00604d980074
:1041f8004801de00724d9800015598004808de001d
:10420800105598000041eb0000202000800f54005a
:10421800040036000200370032c0b3000100370046
:1042280012c2b3002a609000e34f5000070032002a
:104238000204e000720032002bc0900081cdb30070
:1042480001404000e14f50006b003e00bb50900021
:104258008180fb004b5090004800dd000100700099
:104268002c003a004b7090000004e00029003a004e
:104278005b7090000004e00026003a006b7090002c
:104288000004e00023003a007b7090000004e00086
:1042980020003a000b7890000004e0001d003a006e
:1042a8001b7890000004e0001a003a002b78900078
:1042b8000004e00017003a003b7890000004e0009a
:1042c80014003a004b7890000004e00011003a0016
:1042d8005b7890000004e0000e003a006b789000d4
:1042e8000004e0000b003a007b7890000004e00036
:1042f80008003a002bc0900081cdb3000140400077
:10430800e14f500003003e000204e00002003a00c2
:104318003b00370032c0b3000e00e00019003a003d
:104328001a80fb001a4190004811dd00000171005d
:10433800aa4090008180fb003a4090004800dd00d0
:1043480001027000ca4090008180fb005a40900032
:104358004800dd0081027000ab7190008381fb0092
:104368003b7090004800dd00030070000000420030
:10437800e0804a00ef2f0700e14f5000b1fe320005
:1043880019003700cfb197000300e0001a003a0087
:104398001a80fb001a4190004811dd0000017100ed
:1043a8002a4290000482fb00ba419000c819dd003f
:1043b800048071004a4290000482fb00da419000b8
:1043c800c819dd008480710066004000e080480064
:1043d800d82f0700e14f500003003a0010002000da
:1043e800c0b79f0098fe370080c0b300e0f2b70066
:1043f800800020000300370002007800e0f2b700d8
:104408000280fb004f0778004f06be004f05be0034
:104418004f04be00cf00b10000000600881f7800de
:10442800000478000040eb003064980080ff200012
:10443800004c78004800de0010449800ad2e0700bc
:10444800000178001004e0000400320060c0b300ee
:10445800e0f2b700804078001f003700001020000d
:1044680012006000100032001200900001002000cd
:10447800005c98004800de00105c98000000eb002b
:10448800205c9800305c980092009000002020008a
:10449800808f50000400360010c2b300e0f2b7006d
:1044a800100220000d0037000800780095fd070075
:1044b800804078000004e00007003a000800780017
:1044c80041fe0700804078000004e00002003a0046
:1044d80010c0b300306498000180fb004f047800de
:1044e80000000600102f210012c0b300312f210058
:1044f80002587800810f5000fdff3a000040eb00a1
:10450800e9f3b700f2f3b7000080eb008080eb001e
:10451800a09f8800b19f8800609f8800719f8800d5
:1045280040212100bdff07008000eb000004e000ef
:104538002d003a0041212100309f800001087800b9
:104548008000eb00309f800051009800309f800071
:10455800610098006011b800309f800072009800d8
:1045680003089800309f80001208980023089800dc
:10457800c1c5b300309f8000415898001200200048
:1045880003c2b300fc004100309f800083707800b4
:104598000201e800eb0f5100faff3a000001eb00be
:1045a800309f80004210980001012000309f800059
:1045b80061109800309f8000149780002597800034
:1045c8007410980005189800309f80001497800098
:1045d8002597800014189800251898000200780084
:1045e800e0f2b7001100200001007800000006008a
:1045f800000178002008900001002000c000dd00c4
:104608000000200052099000030020000200700002
:104618008380700000000600889fbe00899f80008c
:104628001904780039019000c90190000800780049
:1046380007fd07000002be001880fb00184190002b
:104648004811dd000001710059009000000042008f
:10465800e0804a008041eb006e2f070091002000a7
:104668000004e00002003200eb73ef008000eb0072
:10467800010078004f04be0000000600889fbe00bd
:104688008a1f78008c9fbe0010047800101e9000ce
:10469800a01e90001100780001002000885a9000a8
:1046a8008582fb00185a90004822dd00050172003f
:1046b800a85a90008582fb00385a90004822dd00f5
:1046c800850172004b1add004511de0002017200ff
:1046d800c519de00f7ef07008044780028609000d5
:1046e800e14f500010003900e24f5000030036003f
:1046f800e34f50000c003a00050037001097800087
:1047080021978000800f5600818f5e0006003200de
:104718000980fb00186190000281fb00110009006c
:104728000280d800814478001880fb0098409000ef
:10473800c808dd00008570000c01be000800780084
:10474800c3fc07000981fb000300200000004100b2
:10475800818049008041eb000a0178002d2f070075
:104768000080fb000000e9004f00de000004a2000a
:104778000080fb004f06be004f0578004f04be00c6
:1047880000000600ee874700889fbe008a9fbe0093
:104798008c9fbe008e1f7800000778000203be00c1
:1047a800f4b79f0085bf9f00206190000240e90098
:1047b800f4ff2f00f5ff2000c4b79f00d5b79f0076
:1047c800e24f50001c013e00f4ff2f00f5ff2000cf
:1047d800c4b79f00d5b79f00e34f510004003200d3
:1047e800f2ff2f0003002000c2b79f00d3b79f003d
:1047f800e973ef000104e0001f003200a89f800069
:10480800b99f80000005eb00130037008041eb00e2
:1048180082df20000800be00fe2e07000a05e8001f
:104828000004e00004013200ce5890008180fb00b3
:104838005e5890004800dd0001017000ee589000bd
:104848008180fb007e5890004800dd0081017000e7
:1048580008044100898449000e6090008a4f500086
:10486800eaff3e00f273ef006022b800c4b79f0071
:10487800d5b79f00f00037002e609000e14f500040
:1048880009003200e34f500010003a00423edd00bc
:10489800ce36de008d0676004236dd008042eb0023
:1048a800c5ef9f000d0037003200200003002000f4
:1048b8000600be008fef070061416000c2ef9f0055
:1048c8008106d1000086d3000400370006064300a5
:1048d80087864b008041eb00c3ef9f008e58900005
:1048e8008180fb001e5890004800dd000104700024
:1048f800ae5890008180fb003e5890004800dd00d3
:1049080081047000ee4090008180fb007e409000a2
:104918004800dd00010570008e4890008180fb0092
:104928001e4890004800dd00810570000801be00a7
:104938000c00be005fef07000a0540008b854800a9
:1049480061045400e0845c008c0064000d80640005
:104958006101b800c016dd000c0020006109b80034
:104968000206760083867600a89f8000b99f8000a3
:104978008a0f54008b8f5c00290032000002eb0084
:10498800b4b79f00f253e20016003a001a0037004d
:104998008041eb0082df20000800be009d2e07004a
:1049a800bfb297008502e800b5b79f000004e00099
:1049b800a1003200ce5890008180fb005e58900024
:1049c8004800dd0001017000ee5890008180fb0076
:1049d8007e5890004800dd00810170000804410005
:1049e800898449000e609000efe09700814f5000e5
:1049f800e7ff3e00f273ef0082df20000a00be00ee
:104a08004c2e07000004e00003003a00f4b3ef0066
:104a1800f633ef0088003700aa9f8800bb9f880004
:104a28002e609000e34f50001a003a0080df20000b
:104a3800efe99700037678000fb9970000f02f0090
:104a48007fb297000400600001002000c809dd0063
:104a58004800de0000807100c808de0094df2000f6
:104a680000767a00a0df20000276780000f02000af
:104a78000001610003002000481add004811de0033
:104a880002017200c819de00b0df2000027678004b
:104a980064003700e24f50000e003a0080df20002b
:104aa800efea97000576780000f02f00ffb0970036
:104ab80001006000010020004809dd004800de0018
:104ac80000007100c808de0092df2000007679003f
:104ad80054003700e14f500052003a0080df2000b8
:104ae8000001460012407800cfe997000304e00077
:104af800050032006fea9700c420dd006f406000b7
:104b080000c07000010037006fe897000049780086
:104b180061024600e0824e008e5990008381fb00be
:104b28001e5990004811dd0003007100ae59900035
:104b38008381fb003e5990004811dd00830071001d
:104b480061005000e08058000401600005806000aa
:104b580001002000c004dd00080020006110b8003a
:104b68000004740081847400e00f5400e08f5c003e
:104b780014003a0011c0b3000802be000801be00cc
:104b88000e007800fffe0700e00f5000e08f58008d
:104b980029003a0061054500e0854d0082df2000cc
:104ba8000a00be00e32d07000004e00003003a00fd
:104bb800f4b3ef00f633ef001f003700aa9f880018
:104bc800bb9f880080df2000000244001443780067
:104bd8004fe897000004e000070032007fb197001b
:104be8008fb99700cc1add004410de0000807200f7
:104bf800c418de000a0037007fb197008fb997000c
:104c0800c81add004810de0000807200c818de00f7
:104c18006f40600002cfb3000241630002407000a1
:104c2800004a780010c0b300f2f3b7006000b80083
:104c3800c0b79f00d1b79f004fb09700dfb0970073
:104c48004f0778004f06be004f05be004f04be0058
:104c5800ef00b10000000600f0874700889fbe0003
:104c68008a9fbe008c9fbe008e1f780000077800c8
:104c78000202be000040eb00e9f3b700ae6090000e
:104c880091f79f00e1cf500010003200e3cf5000b1
:104c98001f003a004229dd00ce21de0083017100a9
:104ca8004221dd00e2b79f00f3b79f0080f79f0025
:104cb800f0ff2f00f1ff2000c0b79f00d1b79f0081
:104cc80082ff2f00f3ff20001d0037003200200074
:104cd800030020000400be0086ee0700e1416000ea
:104ce80083f79f008100d1000080d300e0b79f00c8
:104cf800f1b79f00f0ff2f0001002000c0b79f0010
:104d0800d1b79f0082ff2000030020000c0037006d
:104d18000202410083824900e4b79f00f5b79f0073
:104d28008041eb0083f79f00f0ff2f000100200077
:104d3800c0b79f00d1b79f0082ff2f00030020005b
:104d4800a2b79f00b3b79f008e5890008180fb00e8
:104d58001e5890004800dd0001057000ae58900014
:104d68008180fb003e5890004800dd0081057000fe
:104d7800ee4090008180fb007e4090004800dd00fe
:104d8800010470008e4890008180fb001e4890004e
:104d98004800dd00810470000a01be006fb0970072
:104da800ffb0970043ee07000806400089864800d8
:104db80061025500e0825d00efb197008300620058
:104dc8007fb19700028062006101b800c014dd0065
:104dd800080020006109b80002047400838474008c
:104de800aa9f8000bb9f80008c0f55008d8f5d00af
:104df80049003a009ff19700e3cf51005d0032006f
:104e08001ff09700e24f5000600032009ff09700bb
:104e1800e1cf500099003a0080df20006840780018
:104e28000086fb000d0020000ff197000204e0004f
:104e380004003200cc69dd004466de000c86710097
:104e4800c46ede0061004400e0804c000001620096
:104e58000180620001002000c004dd00080020007d
:104e68006110b8000004740081847400e00f5400dd
:104e7800e08f5c0013003a00f253e20008003200b1
:104e880011c0b3000802be000801be000e00780081
:104e98003cfe0700e00f5000e08f580080003a0009
:104ea80061054500e0854d0082df20000a00be0054
:104eb800202d07000004e00026003200aa9f880089
:104ec800bb9f880080df2000684078000080fb00de
:104ed800010020000ff197000204e00005003200f5
:104ee800c409dd00cc00de00818071004400dd00d3
:104ef800060037006f00600001002000c808dd00d0
:104f08000080fd00804078000040eb000c0040006d
:104f18008d8048005a003700f253e2000800320042
:104f280011c0b3006022b8000401be000e00780072
:104f380014fe0700e00f5000e08f580058003a00b8
:104f480082df20000c00be00fa2c07000004e000fd
:104f580003003a00f4b3ef00f633ef0050003700d7
:104f6800ac9f8800bd9f88002e609000e34f5000e2
:104f780004003a0080df2000000044001000be005a
:104f88003f003700e24f500004003a0080df200065
:104f9800680078000100200039003700e14f500018
:104fa80036003a0080df2000684078000083fb006c
:104fb800070020008ff097000104e0000400320091
:104fc8004c39dd004433de0006037100c43bde00cb
:104fd80061024400e0824c008e5990008381fb00fe
:104fe8001e5990004811dd0003007100ae59900071
:104ff8008381fb003e5990004811dd008300710059
:1050080061005000e08058000401600005806000e5
:105018006102b800c020dd00000020006112b80065
:10502800040070008580700082df200060407900f5
:105038000080fb00010020008ff197000304e000ce
:10504800050032004409dd00cc00de00810071005b
:105058004400dd00060037006f00600001002000fa
:10506800c808dd000080fd00804078000040eb00ab
:105078000600400087804800010037006000b80043
:105088002fb19700bfb19700820f5000838f58004f
:10509800010039000200be00c0b79f00d1b79f00d1
:1050a8004fb09700dfb097004f0778004f06be005b
:1050b8004f05be004f04be000f01b10000000600fe
:1050c800ec874700889fbe008a9fbe008c9fbe0069
:1050d8008e1f7800e0b79f00f1b79f0082f79f000e
:1050e8009004780070169000801e9000101d9000ab
:1050f800a01d9000110478006140b800895a900002
:105108008582fb00195a90004822dd0005017200d3
:10511800a95a90008582fb00395a90004822dd0088
:10512800850172004b1add004511de000201720094
:10513800c519de005fed0700004778002960900080
:10514800e34f500009003a000e80fb0019619000ff
:105158000281fb00110009000280d8000147780095
:1051680080ff2f00f1ff20000f00370080ff2f0085
:1051780001002000c0b79f00d1b79f00e00f560084
:10518800e08f5e000a0032000e80fb00196190007b
:105198000281fb00110009000280d8000147780055
:1051a80080ff2f0001002000c0b79f00d1b79f00eb
:1051b8008ff097000104e00002003a006f016400dc
:1051c80079003a000e04e00002003a00ef0f5400a4
:1051d80003003e000ff197000204e0001d003200ba
:1051e800e00f5600e08f5e0002003a000c05be009a
:1051f800180037000ff297000404e000080032009e
:10520800196190000281fb004411dd0011000900c2
:105218000284d80000017800024478000b003700af
:1052280018c0b3000a01be00090078008afe070012
:105238000005be004fb09700dfb09700800f550003
:10524800818f5d00540031000844e9000804e00043
:10525800f4ff3a004fb09700dfb09700800f550079
:10526800818f5d004c003100efb097009a189800cc
:10527800ab1898000a01be0009007800f4f907008d
:105288000006be001097800021978000800f55000f
:10529800818f5d0015003a000e82fb00050020009a
:1052a8000c0242008d824a00e94890008180fb0090
:1052b800794890004800dd00010170008950900095
:1052c8008180fb00195090004800dd0081017000ca
:1052d800820f5200838f5a00040039002960900021
:1052e8008000eb00e34f500035003a00eb53e2003a
:1052f80004003200c8fc07008000eb000004e00056
:105308002f003a000004eb00889f8800080078000e
:10531800e9f3b7001980fb00194190004811dd003e
:10532800000171000e80fb00010020000c0040000d
:105338008d804800ff2b0700e14f5000020032002b
:1053480088007800110037000ff197000204e00090
:105358000a0032001980fb0099409000c808dd005f
:10536800808070007fb29700140278006f0062009e
:105378004500dd0080804000040037009980fb0074
:10538800194090004800dd0081007000ecb3ef0088
:10539800eeb3ef000a00370010c0b300eaf3b7001d
:1053a8008000eb00060037001980fb009940900050
:1053b800c808dd00808070004510dd008080400056
:1053c800010078004f0778004f06be004f05be0069
:1053d8004f04be00cf00b10000000600ea87470076
:1053e800889fbe008a9fbe008c9fbe008e1f7800db
:1053f80000077800f2b79f0083bf9f001005780070
:105408002a609000e14f5000050032008cff2f0009
:105418000d002000e34f500003003a000a00370057
:105428008cff20000d002000f0ff2f00010020005d
:10543800d0b79f00e1b79f007fb497008fbc97005b
:105448008045eb00050037008cff2f00fdff200092
:10545800f0ff2f00f1ff2000f5ff37003e0190001c
:10546800ce0190000a007800fbfd07000002be0094
:105478005fb09700efb09700800f5200818f5a00fd
:1054880002003a008bc0b30012003700ca509000e7
:105498008180fb005a5090004800dd000101700037
:1054a800ea5090008180fb007a5090004800dd00af
:1054b80081017000820f5200838f5a000100390069
:1054c800abc0b3008c0f52008d8f5a000100390019
:1054d800cbc3b30034079800450798006104540013
:1054e800e0845c00020032000b04e000dbff3200c5
:1054f8000b80fb004f0778004f06be004f05be002b
:105508004f04be00af00b10000000600e887470066
:10551800889fbe008a9fbe008c9fbe008e1f7800a9
:105528000005be0082bf9f0022609000e14f50003e
:1055380003003200e34f500008003a000e00370025
:10554800f0ff2f0001002000e0b79f00f1b79f0097
:105558008cff20000d0020000d003700f2ff2f0007
:1055680003002000e2b79f00f3b79f008cff2f00d5
:105578000d00200006003700f0ff2f00f1ff20008b
:10558800e0b79f00f1b79f008cff2f00fdff2000c0
:10559800e10f5500e08f5d001f0036000a01be00d4
:1055a8000fb89700acfd07000004be006fb197006c
:1055b800ffb19700820f5000838f58001800320007
:1055c800e10f5000e08f5800130036002e00200035
:1055d8008c0f50008d8f5800010031000007eb0040
:1055e8008040eb006022b8000a01be000fb89700a7
:1055f80064fc07006fb19700ffb19700820f50005d
:10560800838f5800060032000805be000e00e00037
:1056180004003a00e1ff37002e00200001003700a7
:105628001e00200011c0b3006022b8000401be00b3
:105638000fb8970053fc07000e0078000010a20076
:105648000000ea004f00de00610010004f077800fc
:105658004f06be004f05be004f04be008f00b100cc
:1056680000000600889fbe008004780001047800ce
:105678008018900070109000901c9800a11c980051
:1056880012c0b30088007800090078008cfe07007b
:105698000000e00011003200904078000104e000b2
:1056a8000e003200fbcf40000c003200070037002c
:1056b800180ce8000041eb00880078000900780029
:1056c8007ffe07000000e00004003200b0489000b0
:1056d800efcf5000f6ff3200010037000000eb006a
:1056e8004f04be0000000600881f78007162200089
:1056f8009140780027c6bf00624160002706a800d5
:105708002726a8002031800025318000283180001c
:10571800273180000108a300010032002706a800f5
:105728000204e000010032002726a8006f01600093
:10573800000fb2004400de006a00b9000001410019
:10574800740141004910dd00a100200005c8a30034
:1057580001003a008000eb0006f02000868162001c
:10576800c819de0083814000c519dd00830170007f
:10577800040f2000048062004400de006a00b900c3
:105788006f81620000014100828171006397880087
:105798003397880053978800040064004400de00b3
:1057a8006a00b9006f016400000141004b11dd007f
:1057b8004c38de006a00b900068363004833de0017
:1057c800000343004533dd000601710004826300d5
:1057d8004422de006a22b9006f8063008400400022
:1057e8000108a3000300320040c6b300f0f2b7007e
:1057f80001003700f072ef000100d10000007100d5
:1058080070978800409788004f04780000000600d1
:10581800889fbe008a9fbe0080047800010578003a
:10582800824578008018900070109000901c9800b5
:10583800a11c980012c0b3008a0078000900780003
:105848001ffe070000047800b00120000800e000f7
:1058580034003200fc804400b200200008007800c8
:1058680031ec070000c1b300f2cf5500010032004f
:1058780000c2b300304c98000040eb00404c980048
:105888000000eb00200c9800500c98006000b80055
:10589800600c9800710c980093ff0700012f2100fd
:1058a80091407800514c98007097800070049800df
:1058b80061978000010c980050978000100c9800a8
:1058c80041978000310c980030978000400c980078
:1058d80068089000f8089000900c9800a10c9800b7
:1058e800f8009000c10c980008089000d00c9800af
:1058f800384890000080fb00e01498009a00780077
:10590800c11498008a007800090078005bfb070042
:1059180091c0b300e14f500001003a008040eb0015
:105928000180fb004f05be004f04be0000000600ca
:105938000800fa00889fbe008a9fbe008c1f78006e
:105948001006780030059000c00590002c6090008b
:10595800e14f500003003200e34f500004003a00ca
:105968000a00370070ff2000010020000200370005
:1059780070ff2f000100200090bf9f00a1bf9f0073
:10598800f2ff2f00030020000600370070ff2f00f1
:10599800f1ff200090bf9f00a1bf9f00f2ff2f00e2
:1059a800f3ff2000f2b79f0083bf9f00e10f55006f
:1059b800e08f5d0002003e002a0020000b0020005e
:1059c8000a01be000c007800a3fc07000a04be0010
:1059d800260037000801be000c0078009efc070076
:1059e8007fb197008fb99700820f5000838f5800be
:1059f80022003200e00f5000e08f580020003200f3
:105a080061044400e0844c001fb99700afb99700c7
:105a1800820f5000838f58000f003200cc50900046
:105a28008180fb005c5090004800dd00010170009f
:105a3800ec5090008180fb007c5090004800dd0015
:105a48008101700062014100e0814900820f540029
:105a5800838f5c0002003900280020000900200024
:105a68008a0f54008b8f5c0004003200e00f540052
