:020000040000fa
:0800000000a404000000000050
:020000040000fa
:080400000040da000000fe00dc
:020000040000fa
:020000040001f9
:0457f00013ff0000a3
:020000040000fa
:020000040001f9
:0457f400c0fc0000f5
:020000040000fa
:020000040001f9
:0457f8000e9b000004
:020000040000fa
:020000040001f9
:0457fc00603f00000a
:020000040000fa
:1000080000020000000200000002000000020000e0
:1000180000020000000200000002000000020000d0
:1000280000020000000200000002000000020000c0
:1000380000020000000200000002000000020000b0
:020000040000fa
:020000040000fa
:020000040001f9
:104800000f8d2000c082a900c482a800a606a800bf
:10481000a626a900a646a800a666a900a686a90005
:10482000c002a800c606a800c626a900c646a80061
:10483000c666a900c686a9002c03a8002c23a800e0
:104840004507a9000006eb008200070023002000b6
:104850008a0620008b000700100cb1000300320014
:104860008301e90076003200f9ff3700600f200075
:1048700090000700400020008e000700300020005c
:104880008c000700b00420008a0007000007eb003e
:104890007b000700900188007900070003e1b70062
:1048a0007700070002e1b7000281bf0080027800b4
:1048b0000002780072000700800678007000070090
:1048c0008001780000047800028020006c0007005e
:1048d000005978008301e900fcff3a000e04e00073
:1048e00003003200e004200072000700e7ff3700f9
:1048f0000d10a6000f0037003200e2000d003a0054
:104900000201e2000b003a000280200040c0b30028
:104910000059780000c0b3000059780040cab300c5
:10492000005978000059eb0000c0b300005978002e
:104930000059eb00028020000d00a70005003700a1
:104940000d10a70005003700500520005900070092
:10495000ceff3700fcff2f00caff37009101800017
:104960000500780008082000110009004888d800d8
:10497000881420000800e10006003300f81420002d
:104980000040e1000300330000052000490007005b
:10499000beff3700050278000c00a60004003700b7
:1049a000850abb00200424001a0007000006eb0063
:1049b00003042000b2cabb00b25abb00b25abb000b
:1049c0008301e900fbff3a001000240011000700fa
:1049d000030420000280200014c0ba003204e10069
:1049e00009003a003440ba003204e10006003a00ff
:1049f0003440ba003204e10003003a008301e900c8
:104a0000f5ff3a009fff37006005200029000700ee
:104a10009eff3700003b880050052000303b880097
:104a2000a00a2000303b880061e7a80000000000d9
:104a30000000000061e7af00feff37000000060045
:104a40000f8d2000090007000221ef00c482a90099
:104a500069ff37003062a80020022000c0118800e2
:104a600031e2a8003342a8000000060087c0a90078
:104a700087e0a9003022ef003222ef00000006009c
:104a80008a0620008005eb000060fe003202ae00c6
:104a900003003700b0118000000747000000060047
:104aa0008b05e900f8ff3a000a05e900f5ff3a0036
:104ab000e3ff37003322af00feff370034a2b70018
:044ac00000000600ec
:020000040000fa
:020000040001f9
:0847f8000000ff000000ff00bb
:020000040000fa
:020000040001f9
:104ac40000080000d000000000000000000000000a
:00000001FF
